{
  "abi": [
    {
      "type": "constructor",
      "inputs": [
        {
          "name": "name",
          "type": "string",
          "internalType": "string"
        },
        {
          "name": "symbol",
          "type": "string",
          "internalType": "string"
        }
      ],
      "stateMutability": "nonpayable"
    },
    {
      "type": "function",
      "name": "allowance",
      "inputs": [
        {
          "name": "owner",
          "type": "address",
          "internalType": "address"
        },
        {
          "name": "spender",
          "type": "address",
          "internalType": "address"
        }
      ],
      "outputs": [
        {
          "name": "",
          "type": "uint256",
          "internalType": "uint256"
        }
      ],
      "stateMutability": "view"
    },
    {
      "type": "function",
      "name": "approve",
      "inputs": [
        {
          "name": "spender",
          "type": "address",
          "internalType": "address"
        },
        {
          "name": "value",
          "type": "uint256",
          "internalType": "uint256"
        }
      ],
      "outputs": [
        {
          "name": "",
          "type": "bool",
          "internalType": "bool"
        }
      ],
      "stateMutability": "nonpayable"
    },
    {
      "type": "function",
      "name": "balanceOf",
      "inputs": [
        {
          "name": "account",
          "type": "address",
          "internalType": "address"
        }
      ],
      "outputs": [
        {
          "name": "",
          "type": "uint256",
          "internalType": "uint256"
        }
      ],
      "stateMutability": "view"
    },
    {
      "type": "function",
      "name": "burn",
      "inputs": [
        {
          "name": "value",
          "type": "uint256",
          "internalType": "uint256"
        }
      ],
      "outputs": [],
      "stateMutability": "nonpayable"
    },
    {
      "type": "function",
      "name": "burnFrom",
      "inputs": [
        {
          "name": "account",
          "type": "address",
          "internalType": "address"
        },
        {
          "name": "value",
          "type": "uint256",
          "internalType": "uint256"
        }
      ],
      "outputs": [],
      "stateMutability": "nonpayable"
    },
    {
      "type": "function",
      "name": "burnFromAccount",
      "inputs": [
        {
          "name": "from",
          "type": "address",
          "internalType": "address"
        },
        {
          "name": "amount",
          "type": "uint256",
          "internalType": "uint256"
        }
      ],
      "outputs": [],
      "stateMutability": "nonpayable"
    },
    {
      "type": "function",
      "name": "decimals",
      "inputs": [],
      "outputs": [
        {
          "name": "",
          "type": "uint8",
          "internalType": "uint8"
        }
      ],
      "stateMutability": "view"
    },
    {
      "type": "function",
      "name": "mint",
      "inputs": [
        {
          "name": "to",
          "type": "address",
          "internalType": "address"
        },
        {
          "name": "amount",
          "type": "uint256",
          "internalType": "uint256"
        }
      ],
      "outputs": [],
      "stateMutability": "nonpayable"
    },
    {
      "type": "function",
      "name": "name",
      "inputs": [],
      "outputs": [
        {
          "name": "",
          "type": "string",
          "internalType": "string"
        }
      ],
      "stateMutability": "view"
    },
    {
      "type": "function",
      "name": "owner",
      "inputs": [],
      "outputs": [
        {
          "name": "",
          "type": "address",
          "internalType": "address"
        }
      ],
      "stateMutability": "view"
    },
    {
      "type": "function",
      "name": "renounceOwnership",
      "inputs": [],
      "outputs": [],
      "stateMutability": "nonpayable"
    },
    {
      "type": "function",
      "name": "symbol",
      "inputs": [],
      "outputs": [
        {
          "name": "",
          "type": "string",
          "internalType": "string"
        }
      ],
      "stateMutability": "view"
    },
    {
      "type": "function",
      "name": "totalSupply",
      "inputs": [],
      "outputs": [
        {
          "name": "",
          "type": "uint256",
          "internalType": "uint256"
        }
      ],
      "stateMutability": "view"
    },
    {
      "type": "function",
      "name": "transfer",
      "inputs": [
        {
          "name": "to",
          "type": "address",
          "internalType": "address"
        },
        {
          "name": "value",
          "type": "uint256",
          "internalType": "uint256"
        }
      ],
      "outputs": [
        {
          "name": "",
          "type": "bool",
          "internalType": "bool"
        }
      ],
      "stateMutability": "nonpayable"
    },
    {
      "type": "function",
      "name": "transferFrom",
      "inputs": [
        {
          "name": "from",
          "type": "address",
          "internalType": "address"
        },
        {
          "name": "to",
          "type": "address",
          "internalType": "address"
        },
        {
          "name": "value",
          "type": "uint256",
          "internalType": "uint256"
        }
      ],
      "outputs": [
        {
          "name": "",
          "type": "bool",
          "internalType": "bool"
        }
      ],
      "stateMutability": "nonpayable"
    },
    {
      "type": "function",
      "name": "transferOwnership",
      "inputs": [
        {
          "name": "newOwner",
          "type": "address",
          "internalType": "address"
        }
      ],
      "outputs": [],
      "stateMutability": "nonpayable"
    },
    {
      "type": "event",
      "name": "Approval",
      "inputs": [
        {
          "name": "owner",
          "type": "address",
          "indexed": true,
          "internalType": "address"
        },
        {
          "name": "spender",
          "type": "address",
          "indexed": true,
          "internalType": "address"
        },
        {
          "name": "value",
          "type": "uint256",
          "indexed": false,
          "internalType": "uint256"
        }
      ],
      "anonymous": false
    },
    {
      "type": "event",
      "name": "OwnershipTransferred",
      "inputs": [
        {
          "name": "previousOwner",
          "type": "address",
          "indexed": true,
          "internalType": "address"
        },
        {
          "name": "newOwner",
          "type": "address",
          "indexed": true,
          "internalType": "address"
        }
      ],
      "anonymous": false
    },
    {
      "type": "event",
      "name": "Transfer",
      "inputs": [
        {
          "name": "from",
          "type": "address",
          "indexed": true,
          "internalType": "address"
        },
        {
          "name": "to",
          "type": "address",
          "indexed": true,
          "internalType": "address"
        },
        {
          "name": "value",
          "type": "uint256",
          "indexed": false,
          "internalType": "uint256"
        }
      ],
      "anonymous": false
    },
    {
      "type": "error",
      "name": "ERC20InsufficientAllowance",
      "inputs": [
        {
          "name": "spender",
          "type": "address",
          "internalType": "address"
        },
        {
          "name": "allowance",
          "type": "uint256",
          "internalType": "uint256"
        },
        {
          "name": "needed",
          "type": "uint256",
          "internalType": "uint256"
        }
      ]
    },
    {
      "type": "error",
      "name": "ERC20InsufficientBalance",
      "inputs": [
        {
          "name": "sender",
          "type": "address",
          "internalType": "address"
        },
        {
          "name": "balance",
          "type": "uint256",
          "internalType": "uint256"
        },
        {
          "name": "needed",
          "type": "uint256",
          "internalType": "uint256"
        }
      ]
    },
    {
      "type": "error",
      "name": "ERC20InvalidApprover",
      "inputs": [
        {
          "name": "approver",
          "type": "address",
          "internalType": "address"
        }
      ]
    },
    {
      "type": "error",
      "name": "ERC20InvalidReceiver",
      "inputs": [
        {
          "name": "receiver",
          "type": "address",
          "internalType": "address"
        }
      ]
    },
    {
      "type": "error",
      "name": "ERC20InvalidSender",
      "inputs": [
        {
          "name": "sender",
          "type": "address",
          "internalType": "address"
        }
      ]
    },
    {
      "type": "error",
      "name": "ERC20InvalidSpender",
      "inputs": [
        {
          "name": "spender",
          "type": "address",
          "internalType": "address"
        }
      ]
    },
    {
      "type": "error",
      "name": "OwnableInvalidOwner",
      "inputs": [
        {
          "name": "owner",
          "type": "address",
          "internalType": "address"
        }
      ]
    },
    {
      "type": "error",
      "name": "OwnableUnauthorizedAccount",
      "inputs": [
        {
          "name": "account",
          "type": "address",
          "internalType": "address"
        }
      ]
    }
  ],
  "bytecode": {
    "object": "0x608060405234801561000f575f5ffd5b50604051611e8c380380611e8c833981810160405281019061003191906105ca565b33828281600390816100439190610850565b5080600490816100539190610850565b5050505f73ffffffffffffffffffffffffffffffffffffffff168173ffffffffffffffffffffffffffffffffffffffff16036100c6575f6040517f1e4fbdf70000000000000000000000000000000000000000000000000000000081526004016100bd919061095e565b60405180910390fd5b6100d58161011460201b60201c565b5061010d336100e86101d760201b60201c565b600a6100f49190610adf565b620186a06101029190610b29565b6101df60201b60201c565b5050610bfa565b5f60055f9054906101000a900473ffffffffffffffffffffffffffffffffffffffff1690508160055f6101000a81548173ffffffffffffffffffffffffffffffffffffffff021916908373ffffffffffffffffffffffffffffffffffffffff1602179055508173ffffffffffffffffffffffffffffffffffffffff168173ffffffffffffffffffffffffffffffffffffffff167f8be0079c531659141344cd1fd0a4f28419497f9722a3daafe3b4186f6b6457e060405160405180910390a35050565b5f6012905090565b5f73ffffffffffffffffffffffffffffffffffffffff168273ffffffffffffffffffffffffffffffffffffffff160361024f575f6040517fec442f05000000000000000000000000000000000000000000000000000000008152600401610246919061095e565b60405180910390fd5b6102605f838361026460201b60201c565b5050565b5f73ffffffffffffffffffffffffffffffffffffffff168373ffffffffffffffffffffffffffffffffffffffff16036102b4578060025f8282546102a89190610b6a565b92505081905550610382565b5f5f5f8573ffffffffffffffffffffffffffffffffffffffff1673ffffffffffffffffffffffffffffffffffffffff1681526020019081526020015f205490508181101561033d578381836040517fe450d38c00000000000000000000000000000000000000000000000000000000815260040161033493929190610bac565b60405180910390fd5b8181035f5f8673ffffffffffffffffffffffffffffffffffffffff1673ffffffffffffffffffffffffffffffffffffffff1681526020019081526020015f2081905550505b5f73ffffffffffffffffffffffffffffffffffffffff168273ffffffffffffffffffffffffffffffffffffffff16036103c9578060025f8282540392505081905550610413565b805f5f8473ffffffffffffffffffffffffffffffffffffffff1673ffffffffffffffffffffffffffffffffffffffff1681526020019081526020015f205f82825401925050819055505b8173ffffffffffffffffffffffffffffffffffffffff168373ffffffffffffffffffffffffffffffffffffffff167fddf252ad1be2c89b69c2b068fc378daa952ba7f163c4a11628f55a4df523b3ef836040516104709190610be1565b60405180910390a3505050565b5f604051905090565b5f5ffd5b5f5ffd5b5f5ffd5b5f5ffd5b5f601f19601f8301169050919050565b7f4e487b71000000000000000000000000000000000000000000000000000000005f52604160045260245ffd5b6104dc82610496565b810181811067ffffffffffffffff821117156104fb576104fa6104a6565b5b80604052505050565b5f61050d61047d565b905061051982826104d3565b919050565b5f67ffffffffffffffff821115610538576105376104a6565b5b61054182610496565b9050602081019050919050565b8281835e5f83830152505050565b5f61056e6105698461051e565b610504565b90508281526020810184848401111561058a57610589610492565b5b61059584828561054e565b509392505050565b5f82601f8301126105b1576105b061048e565b5b81516105c184826020860161055c565b91505092915050565b5f5f604083850312156105e0576105df610486565b5b5f83015167ffffffffffffffff8111156105fd576105fc61048a565b5b6106098582860161059d565b925050602083015167ffffffffffffffff81111561062a5761062961048a565b5b6106368582860161059d565b9150509250929050565b5f81519050919050565b7f4e487b71000000000000000000000000000000000000000000000000000000005f52602260045260245ffd5b5f600282049050600182168061068e57607f821691505b6020821081036106a1576106a061064a565b5b50919050565b5f819050815f5260205f209050919050565b5f6020601f8301049050919050565b5f82821b905092915050565b5f600883026107037fffffffffffffffffffffffffffffffffffffffffffffffffffffffffffffffff826106c8565b61070d86836106c8565b95508019841693508086168417925050509392505050565b5f819050919050565b5f819050919050565b5f61075161074c61074784610725565b61072e565b610725565b9050919050565b5f819050919050565b61076a83610737565b61077e61077682610758565b8484546106d4565b825550505050565b5f5f905090565b610795610786565b6107a0818484610761565b505050565b5b818110156107c3576107b85f8261078d565b6001810190506107a6565b5050565b601f821115610808576107d9816106a7565b6107e2846106b9565b810160208510156107f1578190505b6108056107fd856106b9565b8301826107a5565b50505b505050565b5f82821c905092915050565b5f6108285f198460080261080d565b1980831691505092915050565b5f6108408383610819565b9150826002028217905092915050565b61085982610640565b67ffffffffffffffff811115610872576108716104a6565b5b61087c8254610677565b6108878282856107c7565b5f60209050601f8311600181146108b8575f84156108a6578287015190505b6108b08582610835565b865550610917565b601f1984166108c6866106a7565b5f5b828110156108ed578489015182556001820191506020850194506020810190506108c8565b8683101561090a5784890151610906601f891682610819565b8355505b6001600288020188555050505b505050505050565b5f73ffffffffffffffffffffffffffffffffffffffff82169050919050565b5f6109488261091f565b9050919050565b6109588161093e565b82525050565b5f6020820190506109715f83018461094f565b92915050565b7f4e487b71000000000000000000000000000000000000000000000000000000005f52601160045260245ffd5b5f8160011c9050919050565b5f5f8291508390505b60018511156109f9578086048111156109d5576109d4610977565b5b60018516156109e45780820291505b80810290506109f2856109a4565b94506109b9565b94509492505050565b5f82610a115760019050610acc565b81610a1e575f9050610acc565b8160018114610a345760028114610a3e57610a6d565b6001915050610acc565b60ff841115610a5057610a4f610977565b5b8360020a915084821115610a6757610a66610977565b5b50610acc565b5060208310610133831016604e8410600b8410161715610aa25782820a905083811115610a9d57610a9c610977565b5b610acc565b610aaf84848460016109b0565b92509050818404811115610ac657610ac5610977565b5b81810290505b9392505050565b5f60ff82169050919050565b5f610ae982610725565b9150610af483610ad3565b9250610b217fffffffffffffffffffffffffffffffffffffffffffffffffffffffffffffffff8484610a02565b905092915050565b5f610b3382610725565b9150610b3e83610725565b9250828202610b4c81610725565b91508282048414831517610b6357610b62610977565b5b5092915050565b5f610b7482610725565b9150610b7f83610725565b9250828201905080821115610b9757610b96610977565b5b92915050565b610ba681610725565b82525050565b5f606082019050610bbf5f83018661094f565b610bcc6020830185610b9d565b610bd96040830184610b9d565b949350505050565b5f602082019050610bf45f830184610b9d565b92915050565b61128580610c075f395ff3fe608060405234801561000f575f5ffd5b50600436106100fe575f3560e01c806370a082311161009557806395d89b411161006457806395d89b4114610284578063a9059cbb146102a2578063dd62ed3e146102d2578063f2fde38b14610302576100fe565b806370a0823114610210578063715018a61461024057806379cc67901461024a5780638da5cb5b14610266576100fe565b8063313ce567116100d1578063313ce5671461019e57806340c10f19146101bc57806342966c68146101d857806359dc2dd2146101f4576100fe565b806306fdde0314610102578063095ea7b31461012057806318160ddd1461015057806323b872dd1461016e575b5f5ffd5b61010a61031e565b6040516101179190610ed3565b60405180910390f35b61013a60048036038101906101359190610f84565b6103ae565b6040516101479190610fdc565b60405180910390f35b6101586103d0565b6040516101659190611004565b60405180910390f35b6101886004803603810190610183919061101d565b6103d9565b6040516101959190610fdc565b60405180910390f35b6101a6610407565b6040516101b39190611088565b60405180910390f35b6101d660048036038101906101d19190610f84565b61040f565b005b6101f260048036038101906101ed91906110a1565b61041d565b005b61020e60048036038101906102099190610f84565b610431565b005b61022a600480360381019061022591906110cc565b61043f565b6040516102379190611004565b60405180910390f35b610248610484565b005b610264600480360381019061025f9190610f84565b610497565b005b61026e6104b7565b60405161027b9190611106565b60405180910390f35b61028c6104df565b6040516102999190610ed3565b60405180910390f35b6102bc60048036038101906102b79190610f84565b61056f565b6040516102c99190610fdc565b60405180910390f35b6102ec60048036038101906102e7919061111f565b610591565b6040516102f99190611004565b60405180910390f35b61031c600480360381019061031791906110cc565b610613565b005b60606003805461032d9061118a565b80601f01602080910402602001604051908101604052809291908181526020018280546103599061118a565b80156103a45780601f1061037b576101008083540402835291602001916103a4565b820191905f5260205f20905b81548152906001019060200180831161038757829003601f168201915b5050505050905090565b5f5f6103b8610697565b90506103c581858561069e565b600191505092915050565b5f600254905090565b5f5f6103e3610697565b90506103f08582856106b0565b6103fb858585610743565b60019150509392505050565b5f6012905090565b6104198282610833565b5050565b61042e610428610697565b826108b2565b50565b61043b82826108b2565b5050565b5f5f5f8373ffffffffffffffffffffffffffffffffffffffff1673ffffffffffffffffffffffffffffffffffffffff1681526020019081526020015f20549050919050565b61048c610931565b6104955f6109b8565b565b6104a9826104a3610697565b836106b0565b6104b382826108b2565b5050565b5f60055f9054906101000a900473ffffffffffffffffffffffffffffffffffffffff16905090565b6060600480546104ee9061118a565b80601f016020809104026020016040519081016040528092919081815260200182805461051a9061118a565b80156105655780601f1061053c57610100808354040283529160200191610565565b820191905f5260205f20905b81548152906001019060200180831161054857829003601f168201915b5050505050905090565b5f5f610579610697565b9050610586818585610743565b600191505092915050565b5f60015f8473ffffffffffffffffffffffffffffffffffffffff1673ffffffffffffffffffffffffffffffffffffffff1681526020019081526020015f205f8373ffffffffffffffffffffffffffffffffffffffff1673ffffffffffffffffffffffffffffffffffffffff1681526020019081526020015f2054905092915050565b61061b610931565b5f73ffffffffffffffffffffffffffffffffffffffff168173ffffffffffffffffffffffffffffffffffffffff160361068b575f6040517f1e4fbdf70000000000000000000000000000000000000000000000000000000081526004016106829190611106565b60405180910390fd5b610694816109b8565b50565b5f33905090565b6106ab8383836001610a7b565b505050565b5f6106bb8484610591565b90507fffffffffffffffffffffffffffffffffffffffffffffffffffffffffffffffff81101561073d578181101561072e578281836040517ffb8f41b2000000000000000000000000000000000000000000000000000000008152600401610725939291906111ba565b60405180910390fd5b61073c84848484035f610a7b565b5b50505050565b5f73ffffffffffffffffffffffffffffffffffffffff168373ffffffffffffffffffffffffffffffffffffffff16036107b3575f6040517f96c6fd1e0000000000000000000000000000000000000000000000000000000081526004016107aa9190611106565b60405180910390fd5b5f73ffffffffffffffffffffffffffffffffffffffff168273ffffffffffffffffffffffffffffffffffffffff1603610823575f6040517fec442f0500000000000000000000000000000000000000000000000000000000815260040161081a9190611106565b60405180910390fd5b61082e838383610c4a565b505050565b5f73ffffffffffffffffffffffffffffffffffffffff168273ffffffffffffffffffffffffffffffffffffffff16036108a3575f6040517fec442f0500000000000000000000000000000000000000000000000000000000815260040161089a9190611106565b60405180910390fd5b6108ae5f8383610c4a565b5050565b5f73ffffffffffffffffffffffffffffffffffffffff168273ffffffffffffffffffffffffffffffffffffffff1603610922575f6040517f96c6fd1e0000000000000000000000000000000000000000000000000000000081526004016109199190611106565b60405180910390fd5b61092d825f83610c4a565b5050565b610939610697565b73ffffffffffffffffffffffffffffffffffffffff166109576104b7565b73ffffffffffffffffffffffffffffffffffffffff16146109b65761097a610697565b6040517f118cdaa70000000000000000000000000000000000000000000000000000000081526004016109ad9190611106565b60405180910390fd5b565b5f60055f9054906101000a900473ffffffffffffffffffffffffffffffffffffffff1690508160055f6101000a81548173ffffffffffffffffffffffffffffffffffffffff021916908373ffffffffffffffffffffffffffffffffffffffff1602179055508173ffffffffffffffffffffffffffffffffffffffff168173ffffffffffffffffffffffffffffffffffffffff167f8be0079c531659141344cd1fd0a4f28419497f9722a3daafe3b4186f6b6457e060405160405180910390a35050565b5f73ffffffffffffffffffffffffffffffffffffffff168473ffffffffffffffffffffffffffffffffffffffff1603610aeb575f6040517fe602df05000000000000000000000000000000000000000000000000000000008152600401610ae29190611106565b60405180910390fd5b5f73ffffffffffffffffffffffffffffffffffffffff168373ffffffffffffffffffffffffffffffffffffffff1603610b5b575f6040517f94280d62000000000000000000000000000000000000000000000000000000008152600401610b529190611106565b60405180910390fd5b8160015f8673ffffffffffffffffffffffffffffffffffffffff1673ffffffffffffffffffffffffffffffffffffffff1681526020019081526020015f205f8573ffffffffffffffffffffffffffffffffffffffff1673ffffffffffffffffffffffffffffffffffffffff1681526020019081526020015f20819055508015610c44578273ffffffffffffffffffffffffffffffffffffffff168473ffffffffffffffffffffffffffffffffffffffff167f8c5be1e5ebec7d5bd14f71427d1e84f3dd0314c0f7b2291e5b200ac8c7c3b92584604051610c3b9190611004565b60405180910390a35b50505050565b5f73ffffffffffffffffffffffffffffffffffffffff168373ffffffffffffffffffffffffffffffffffffffff1603610c9a578060025f828254610c8e919061121c565b92505081905550610d68565b5f5f5f8573ffffffffffffffffffffffffffffffffffffffff1673ffffffffffffffffffffffffffffffffffffffff1681526020019081526020015f2054905081811015610d23578381836040517fe450d38c000000000000000000000000000000000000000000000000000000008152600401610d1a939291906111ba565b60405180910390fd5b8181035f5f8673ffffffffffffffffffffffffffffffffffffffff1673ffffffffffffffffffffffffffffffffffffffff1681526020019081526020015f2081905550505b5f73ffffffffffffffffffffffffffffffffffffffff168273ffffffffffffffffffffffffffffffffffffffff1603610daf578060025f8282540392505081905550610df9565b805f5f8473ffffffffffffffffffffffffffffffffffffffff1673ffffffffffffffffffffffffffffffffffffffff1681526020019081526020015f205f82825401925050819055505b8173ffffffffffffffffffffffffffffffffffffffff168373ffffffffffffffffffffffffffffffffffffffff167fddf252ad1be2c89b69c2b068fc378daa952ba7f163c4a11628f55a4df523b3ef83604051610e569190611004565b60405180910390a3505050565b5f81519050919050565b5f82825260208201905092915050565b8281835e5f83830152505050565b5f601f19601f8301169050919050565b5f610ea582610e63565b610eaf8185610e6d565b9350610ebf818560208601610e7d565b610ec881610e8b565b840191505092915050565b5f6020820190508181035f830152610eeb8184610e9b565b905092915050565b5f5ffd5b5f73ffffffffffffffffffffffffffffffffffffffff82169050919050565b5f610f2082610ef7565b9050919050565b610f3081610f16565b8114610f3a575f5ffd5b50565b5f81359050610f4b81610f27565b92915050565b5f819050919050565b610f6381610f51565b8114610f6d575f5ffd5b50565b5f81359050610f7e81610f5a565b92915050565b5f5f60408385031215610f9a57610f99610ef3565b5b5f610fa785828601610f3d565b9250506020610fb885828601610f70565b9150509250929050565b5f8115159050919050565b610fd681610fc2565b82525050565b5f602082019050610fef5f830184610fcd565b92915050565b610ffe81610f51565b82525050565b5f6020820190506110175f830184610ff5565b92915050565b5f5f5f6060848603121561103457611033610ef3565b5b5f61104186828701610f3d565b935050602061105286828701610f3d565b925050604061106386828701610f70565b9150509250925092565b5f60ff82169050919050565b6110828161106d565b82525050565b5f60208201905061109b5f830184611079565b92915050565b5f602082840312156110b6576110b5610ef3565b5b5f6110c384828501610f70565b91505092915050565b5f602082840312156110e1576110e0610ef3565b5b5f6110ee84828501610f3d565b91505092915050565b61110081610f16565b82525050565b5f6020820190506111195f8301846110f7565b92915050565b5f5f6040838503121561113557611134610ef3565b5b5f61114285828601610f3d565b925050602061115385828601610f3d565b9150509250929050565b7f4e487b71000000000000000000000000000000000000000000000000000000005f52602260045260245ffd5b5f60028204905060018216806111a157607f821691505b6020821081036111b4576111b361115d565b5b50919050565b5f6060820190506111cd5f8301866110f7565b6111da6020830185610ff5565b6111e76040830184610ff5565b949350505050565b7f4e487b71000000000000000000000000000000000000000000000000000000005f52601160045260245ffd5b5f61122682610f51565b915061123183610f51565b9250828201905080821115611249576112486111ef565b5b9291505056fea2646970667358221220948e68a693b16fc45c2a40261e1ac07143eb38ff2fe7918efe3f9ab2149da10c64736f6c634300081e0033",
    "linkReferences": {}
  },
  "methodIdentifiers": {
    "allowance(address,address)": "dd62ed3e",
    "approve(address,uint256)": "095ea7b3",
    "balanceOf(address)": "70a08231",
    "burn(uint256)": "42966c68",
    "burnFrom(address,uint256)": "79cc6790",
    "burnFromAccount(address,uint256)": "59dc2dd2",
    "decimals()": "313ce567",
    "mint(address,uint256)": "40c10f19",
    "name()": "06fdde03",
    "owner()": "8da5cb5b",
    "renounceOwnership()": "715018a6",
    "symbol()": "95d89b41",
    "totalSupply()": "18160ddd",
    "transfer(address,uint256)": "a9059cbb",
    "transferFrom(address,address,uint256)": "23b872dd",
    "transferOwnership(address)": "f2fde38b"
  },
  "id": 46
}