{
    "abi": [
        {
            "type": "constructor",
            "inputs": [],
            "stateMutability": "nonpayable"
        },
        {
            "type": "function",
            "name": "contributionScores",
            "inputs": [
                {
                    "name": "",
                    "type": "address",
                    "internalType": "address"
                }
            ],
            "outputs": [
                {
                    "name": "",
                    "type": "uint256",
                    "internalType": "uint256"
                }
            ],
            "stateMutability": "view"
        },
        {
            "type": "function",
            "name": "getContributionScore",
            "inputs": [
                {
                    "name": "user",
                    "type": "address",
                    "internalType": "address"
                }
            ],
            "outputs": [
                {
                    "name": "",
                    "type": "uint256",
                    "internalType": "uint256"
                }
            ],
            "stateMutability": "view"
        },
        {
            "type": "function",
            "name": "setContributionScore",
            "inputs": [
                {
                    "name": "user",
                    "type": "address",
                    "internalType": "address"
                },
                {
                    "name": "score",
                    "type": "uint256",
                    "internalType": "uint256"
                }
            ],
            "outputs": [],
            "stateMutability": "nonpayable"
        },
        {
            "type": "event",
            "name": "ScoreUpdated",
            "inputs": [
                {
                    "name": "user",
                    "type": "address",
                    "indexed": true,
                    "internalType": "address"
                },
                {
                    "name": "newScore",
                    "type": "uint256",
                    "indexed": false,
                    "internalType": "uint256"
                }
            ],
            "anonymous": false
        }
    ],
    "bytecode": {
        "object": "0x6080604052348015600e575f5ffd5b506103038061001c5f395ff3fe608060405234801561000f575f5ffd5b506004361061003f575f3560e01c80636c55b0a714610043578063ad7e34b414610073578063e800dfee1461008f575b5f5ffd5b61005d60048036038101906100589190610209565b6100bf565b60405161006a919061024c565b60405180910390f35b61008d6004803603810190610088919061028f565b6100d3565b005b6100a960048036038101906100a49190610209565b610166565b6040516100b6919061024c565b60405180910390f35b5f602052805f5260405f205f915090505481565b805f5f8473ffffffffffffffffffffffffffffffffffffffff1673ffffffffffffffffffffffffffffffffffffffff1681526020019081526020015f20819055508173ffffffffffffffffffffffffffffffffffffffff167f66ead48cfe0e1d1aa8bad492e906c348dfcfeecbf3b7b2cdf9b1f3cfa42a29458260405161015a919061024c565b60405180910390a25050565b5f5f5f8373ffffffffffffffffffffffffffffffffffffffff1673ffffffffffffffffffffffffffffffffffffffff1681526020019081526020015f20549050919050565b5f5ffd5b5f73ffffffffffffffffffffffffffffffffffffffff82169050919050565b5f6101d8826101af565b9050919050565b6101e8816101ce565b81146101f2575f5ffd5b50565b5f81359050610203816101df565b92915050565b5f6020828403121561021e5761021d6101ab565b5b5f61022b848285016101f5565b91505092915050565b5f819050919050565b61024681610234565b82525050565b5f60208201905061025f5f83018461023d565b92915050565b61026e81610234565b8114610278575f5ffd5b50565b5f8135905061028981610265565b92915050565b5f5f604083850312156102a5576102a46101ab565b5b5f6102b2858286016101f5565b92505060206102c38582860161027b565b915050925092905056fea264697066735822122027da07e7177f6ee08e4027c1716331048b538c3a149fa84dea5685ebb4574fac64736f6c634300081e0033",
        "linkReferences": {}
    },
    "methodIdentifiers": {
        "contributionScores(address)": "6c55b0a7",
        "getContributionScore(address)": "e800dfee",
        "setContributionScore(address,uint256)": "ad7e34b4"
    },
    "id": 42
}